{
  "contracts/SupplyChain.sol": {
    "SupplyChain": {
      "abi": [
        {
          "inputs": [],
          "name": "getAllLogs",
          "outputs": [
            {
              "components": [
                {
                  "internalType": "string",
                  "name": "uid",
                  "type": "string"
                },
                {
                  "internalType": "string",
                  "name": "stage",
                  "type": "string"
                },
                {
                  "internalType": "string",
                  "name": "action",
                  "type": "string"
                },
                {
                  "internalType": "uint256",
                  "name": "timestamp",
                  "type": "uint256"
                }
              ],
              "internalType": "struct SupplyChain.StageEvent[]",
              "name": "",
              "type": "tuple[]"
            }
          ],
          "stateMutability": "view",
          "type": "function"
        },
        {
          "inputs": [
            {
              "internalType": "uint256",
              "name": "index",
              "type": "uint256"
            }
          ],
          "name": "getLog",
          "outputs": [
            {
              "internalType": "string",
              "name": "",
              "type": "string"
            }
          ],
          "stateMutability": "view",
          "type": "function"
        },
        {
          "inputs": [
            {
              "internalType": "string",
              "name": "uid",
              "type": "string"
            },
            {
              "internalType": "string",
              "name": "stage",
              "type": "string"
            },
            {
              "internalType": "string",
              "name": "action",
              "type": "string"
            }
          ],
          "name": "logStageEvent",
          "outputs": [],
          "stateMutability": "nonpayable",
          "type": "function"
        },
        {
          "inputs": [
            {
              "internalType": "uint256",
              "name": "",
              "type": "uint256"
            }
          ],
          "name": "logs",
          "outputs": [
            {
              "internalType": "string",
              "name": "uid",
              "type": "string"
            },
            {
              "internalType": "string",
              "name": "stage",
              "type": "string"
            },
            {
              "internalType": "string",
              "name": "action",
              "type": "string"
            },
            {
              "internalType": "uint256",
              "name": "timestamp",
              "type": "uint256"
            }
          ],
          "stateMutability": "view",
          "type": "function"
        },
        {
          "inputs": [],
          "name": "totalLogs",
          "outputs": [
            {
              "internalType": "uint256",
              "name": "",
              "type": "uint256"
            }
          ],
          "stateMutability": "view",
          "type": "function"
        }
      ],
      "evm": {
        "bytecode": {
          "linkReferences": {},
          "object": "6080604052348015600f57600080fd5b506114d08061001f6000396000f3fe608060405234801561001057600080fd5b50600436106100575760003560e01c80633206b2c61461005c5780636c8fd4871461008c578063e4ce0662146100a8578063e581329b146100c6578063e79899bd146100e4575b600080fd5b610076600480360381019061007191906109e8565b610117565b6040516100839190610aa5565b60405180910390f35b6100a660048036038101906100a19190610bfc565b610396565b005b6100b0610435565b6040516100bd9190610cb2565b60405180910390f35b6100ce610441565b6040516100db9190610e59565b60405180910390f35b6100fe60048036038101906100f991906109e8565b610660565b60405161010e9493929190610e7b565b60405180910390f35b60606000805490508210610160576040517f08c379a000000000000000000000000000000000000000000000000000000000815260040161015790610f21565b60405180910390fd5b600080838154811061017557610174610f41565b5b906000526020600020906004020160405180608001604052908160008201805461019e90610f9f565b80601f01602080910402602001604051908101604052809291908181526020018280546101ca90610f9f565b80156102175780601f106101ec57610100808354040283529160200191610217565b820191906000526020600020905b8154815290600101906020018083116101fa57829003601f168201915b5050505050815260200160018201805461023090610f9f565b80601f016020809104026020016040519081016040528092919081815260200182805461025c90610f9f565b80156102a95780601f1061027e576101008083540402835291602001916102a9565b820191906000526020600020905b81548152906001019060200180831161028c57829003601f168201915b505050505081526020016002820180546102c290610f9f565b80601f01602080910402602001604051908101604052809291908181526020018280546102ee90610f9f565b801561033b5780601f106103105761010080835404028352916020019161033b565b820191906000526020600020905b81548152906001019060200180831161031e57829003601f168201915b50505050508152602001600382015481525050905080600001518160200151826040015161036c8460600151610838565b60405160200161037f9493929190611058565b604051602081830303815290604052915050919050565b6000604051806080016040528085815260200184815260200183815260200142815250908060018154018082558091505060019003906000526020600020906004020160009091909190915060008201518160000190816103f79190611263565b50602082015181600101908161040d9190611263565b5060408201518160020190816104239190611263565b50606082015181600301555050505050565b60008080549050905090565b60606000805480602002602001604051908101604052809291908181526020016000905b82821015610657578382906000526020600020906004020160405180608001604052908160008201805461049890610f9f565b80601f01602080910402602001604051908101604052809291908181526020018280546104c490610f9f565b80156105115780601f106104e657610100808354040283529160200191610511565b820191906000526020600020905b8154815290600101906020018083116104f457829003601f168201915b5050505050815260200160018201805461052a90610f9f565b80601f016020809104026020016040519081016040528092919081815260200182805461055690610f9f565b80156105a35780601f10610578576101008083540402835291602001916105a3565b820191906000526020600020905b81548152906001019060200180831161058657829003601f168201915b505050505081526020016002820180546105bc90610f9f565b80601f01602080910402602001604051908101604052809291908181526020018280546105e890610f9f565b80156106355780601f1061060a57610100808354040283529160200191610635565b820191906000526020600020905b81548152906001019060200180831161061857829003601f168201915b5050505050815260200160038201548152505081526020019060010190610465565b50505050905090565b6000818154811061067057600080fd5b906000526020600020906004020160009150905080600001805461069390610f9f565b80601f01602080910402602001604051908101604052809291908181526020018280546106bf90610f9f565b801561070c5780601f106106e15761010080835404028352916020019161070c565b820191906000526020600020905b8154815290600101906020018083116106ef57829003601f168201915b50505050509080600101805461072190610f9f565b80601f016020809104026020016040519081016040528092919081815260200182805461074d90610f9f565b801561079a5780601f1061076f5761010080835404028352916020019161079a565b820191906000526020600020905b81548152906001019060200180831161077d57829003601f168201915b5050505050908060020180546107af90610f9f565b80601f01602080910402602001604051908101604052809291908181526020018280546107db90610f9f565b80156108285780601f106107fd57610100808354040283529160200191610828565b820191906000526020600020905b81548152906001019060200180831161080b57829003601f168201915b5050505050908060030154905084565b60606000820361087f576040518060400160405280600181526020017f30000000000000000000000000000000000000000000000000000000000000008152509050610999565b600082905060005b600082146108b157808061089a90611364565b915050600a826108aa91906113db565b9150610887565b60008167ffffffffffffffff8111156108cd576108cc610ad1565b5b6040519080825280601f01601f1916602001820160405280156108ff5781602001600182028036833780820191505090505b50905060008290508593505b6000841461099157600a84610920919061140c565b603061092c919061143d565b60f81b828261093a90611471565b9250828151811061094e5761094d610f41565b5b60200101907effffffffffffffffffffffffffffffffffffffffffffffffffffffffffffff1916908160001a905350600a8461098a91906113db565b935061090b565b819450505050505b919050565b6000604051905090565b600080fd5b600080fd5b6000819050919050565b6109c5816109b2565b81146109d057600080fd5b50565b6000813590506109e2816109bc565b92915050565b6000602082840312156109fe576109fd6109a8565b5b6000610a0c848285016109d3565b91505092915050565b600081519050919050565b600082825260208201905092915050565b60005b83811015610a4f578082015181840152602081019050610a34565b60008484015250505050565b6000601f19601f8301169050919050565b6000610a7782610a15565b610a818185610a20565b9350610a91818560208601610a31565b610a9a81610a5b565b840191505092915050565b60006020820190508181036000830152610abf8184610a6c565b905092915050565b600080fd5b600080fd5b7f4e487b7100000000000000000000000000000000000000000000000000000000600052604160045260246000fd5b610b0982610a5b565b810181811067ffffffffffffffff82111715610b2857610b27610ad1565b5b80604052505050565b6000610b3b61099e565b9050610b478282610b00565b919050565b600067ffffffffffffffff821115610b6757610b66610ad1565b5b610b7082610a5b565b9050602081019050919050565b82818337600083830152505050565b6000610b9f610b9a84610b4c565b610b31565b905082815260208101848484011115610bbb57610bba610acc565b5b610bc6848285610b7d565b509392505050565b600082601f830112610be357610be2610ac7565b5b8135610bf3848260208601610b8c565b91505092915050565b600080600060608486031215610c1557610c146109a8565b5b600084013567ffffffffffffffff811115610c3357610c326109ad565b5b610c3f86828701610bce565b935050602084013567ffffffffffffffff811115610c6057610c5f6109ad565b5b610c6c86828701610bce565b925050604084013567ffffffffffffffff811115610c8d57610c8c6109ad565b5b610c9986828701610bce565b9150509250925092565b610cac816109b2565b82525050565b6000602082019050610cc76000830184610ca3565b92915050565b600081519050919050565b600082825260208201905092915050565b6000819050602082019050919050565b600082825260208201905092915050565b6000610d1582610a15565b610d1f8185610cf9565b9350610d2f818560208601610a31565b610d3881610a5b565b840191505092915050565b610d4c816109b2565b82525050565b60006080830160008301518482036000860152610d6f8282610d0a565b91505060208301518482036020860152610d898282610d0a565b91505060408301518482036040860152610da38282610d0a565b9150506060830151610db86060860182610d43565b508091505092915050565b6000610dcf8383610d52565b905092915050565b6000602082019050919050565b6000610def82610ccd565b610df98185610cd8565b935083602082028501610e0b85610ce9565b8060005b85811015610e475784840389528151610e288582610dc3565b9450610e3383610dd7565b925060208a01995050600181019050610e0f565b50829750879550505050505092915050565b60006020820190508181036000830152610e738184610de4565b905092915050565b60006080820190508181036000830152610e958187610a6c565b90508181036020830152610ea98186610a6c565b90508181036040830152610ebd8185610a6c565b9050610ecc6060830184610ca3565b95945050505050565b7f496e76616c696420696e64657800000000000000000000000000000000000000600082015250565b6000610f0b600d83610a20565b9150610f1682610ed5565b602082019050919050565b60006020820190508181036000830152610f3a81610efe565b9050919050565b7f4e487b7100000000000000000000000000000000000000000000000000000000600052603260045260246000fd5b7f4e487b7100000000000000000000000000000000000000000000000000000000600052602260045260246000fd5b60006002820490506001821680610fb757607f821691505b602082108103610fca57610fc9610f70565b5b50919050565b600081905092915050565b6000610fe682610a15565b610ff08185610fd0565b9350611000818560208601610a31565b80840191505092915050565b7f2000000000000000000000000000000000000000000000000000000000000000600082015250565b6000611042600183610fd0565b915061104d8261100c565b600182019050919050565b60006110648287610fdb565b915061106f82611035565b915061107b8286610fdb565b915061108682611035565b91506110928285610fdb565b915061109d82611035565b91506110a98284610fdb565b915081905095945050505050565b60008190508160005260206000209050919050565b60006020601f8301049050919050565b600082821b905092915050565b6000600883026111197fffffffffffffffffffffffffffffffffffffffffffffffffffffffffffffffff826110dc565b61112386836110dc565b95508019841693508086168417925050509392505050565b6000819050919050565b600061116061115b611156846109b2565b61113b565b6109b2565b9050919050565b6000819050919050565b61117a83611145565b61118e61118682611167565b8484546110e9565b825550505050565b600090565b6111a3611196565b6111ae818484611171565b505050565b5b818110156111d2576111c760008261119b565b6001810190506111b4565b5050565b601f821115611217576111e8816110b7565b6111f1846110cc565b81016020851015611200578190505b61121461120c856110cc565b8301826111b3565b50505b505050565b600082821c905092915050565b600061123a6000198460080261121c565b1980831691505092915050565b60006112538383611229565b9150826002028217905092915050565b61126c82610a15565b67ffffffffffffffff81111561128557611284610ad1565b5b61128f8254610f9f565b61129a8282856111d6565b600060209050601f8311600181146112cd57600084156112bb578287015190505b6112c58582611247565b86555061132d565b601f1984166112db866110b7565b60005b82811015611303578489015182556001820191506020850194506020810190506112de565b86831015611320578489015161131c601f891682611229565b8355505b6001600288020188555050505b505050505050565b7f4e487b7100000000000000000000000000000000000000000000000000000000600052601160045260246000fd5b600061136f826109b2565b91507fffffffffffffffffffffffffffffffffffffffffffffffffffffffffffffffff82036113a1576113a0611335565b5b600182019050919050565b7f4e487b7100000000000000000000000000000000000000000000000000000000600052601260045260246000fd5b60006113e6826109b2565b91506113f1836109b2565b925082611401576114006113ac565b5b828204905092915050565b6000611417826109b2565b9150611422836109b2565b925082611432576114316113ac565b5b828206905092915050565b6000611448826109b2565b9150611453836109b2565b925082820190508082111561146b5761146a611335565b5b92915050565b600061147c826109b2565b91506000820361148f5761148e611335565b5b60018203905091905056fea2646970667358221220f1340facc92f857f8fb6338de0b8554d804d9ed3c61c0464677bc15dc5ed420d64736f6c634300081c0033",
          "opcodes": "PUSH1 0x80 PUSH1 0x40 MSTORE CALLVALUE DUP1 ISZERO PUSH1 0xF JUMPI PUSH1 0x0 DUP1 REVERT JUMPDEST POP PUSH2 0x14D0 DUP1 PUSH2 0x1F PUSH1 0x0 CODECOPY PUSH1 0x0 RETURN INVALID PUSH1 0x80 PUSH1 0x40 MSTORE CALLVALUE DUP1 ISZERO PUSH2 0x10 JUMPI PUSH1 0x0 DUP1 REVERT JUMPDEST POP PUSH1 0x4 CALLDATASIZE LT PUSH2 0x57 JUMPI PUSH1 0x0 CALLDATALOAD PUSH1 0xE0 SHR DUP1 PUSH4 0x3206B2C6 EQ PUSH2 0x5C JUMPI DUP1 PUSH4 0x6C8FD487 EQ PUSH2 0x8C JUMPI DUP1 PUSH4 0xE4CE0662 EQ PUSH2 0xA8 JUMPI DUP1 PUSH4 0xE581329B EQ PUSH2 0xC6 JUMPI DUP1 PUSH4 0xE79899BD EQ PUSH2 0xE4 JUMPI JUMPDEST PUSH1 0x0 DUP1 REVERT JUMPDEST PUSH2 0x76 PUSH1 0x4 DUP1 CALLDATASIZE SUB DUP2 ADD SWAP1 PUSH2 0x71 SWAP2 SWAP1 PUSH2 0x9E8 JUMP JUMPDEST PUSH2 0x117 JUMP JUMPDEST PUSH1 0x40 MLOAD PUSH2 0x83 SWAP2 SWAP1 PUSH2 0xAA5 JUMP JUMPDEST PUSH1 0x40 MLOAD DUP1 SWAP2 SUB SWAP1 RETURN JUMPDEST PUSH2 0xA6 PUSH1 0x4 DUP1 CALLDATASIZE SUB DUP2 ADD SWAP1 PUSH2 0xA1 SWAP2 SWAP1 PUSH2 0xBFC JUMP JUMPDEST PUSH2 0x396 JUMP JUMPDEST STOP JUMPDEST PUSH2 0xB0 PUSH2 0x435 JUMP JUMPDEST PUSH1 0x40 MLOAD PUSH2 0xBD SWAP2 SWAP1 PUSH2 0xCB2 JUMP JUMPDEST PUSH1 0x40 MLOAD DUP1 SWAP2 SUB SWAP1 RETURN JUMPDEST PUSH2 0xCE PUSH2 0x441 JUMP JUMPDEST PUSH1 0x40 MLOAD PUSH2 0xDB SWAP2 SWAP1 PUSH2 0xE59 JUMP JUMPDEST PUSH1 0x40 MLOAD DUP1 SWAP2 SUB SWAP1 RETURN JUMPDEST PUSH2 0xFE PUSH1 0x4 DUP1 CALLDATASIZE SUB DUP2 ADD SWAP1 PUSH2 0xF9 SWAP2 SWAP1 PUSH2 0x9E8 JUMP JUMPDEST PUSH2 0x660 JUMP JUMPDEST PUSH1 0x40 MLOAD PUSH2 0x10E SWAP5 SWAP4 SWAP3 SWAP2 SWAP1 PUSH2 0xE7B JUMP JUMPDEST PUSH1 0x40 MLOAD DUP1 SWAP2 SUB SWAP1 RETURN JUMPDEST PUSH1 0x60 PUSH1 0x0 DUP1 SLOAD SWAP1 POP DUP3 LT PUSH2 0x160 JUMPI PUSH1 0x40 MLOAD PUSH32 0x8C379A000000000000000000000000000000000000000000000000000000000 DUP2 MSTORE PUSH1 0x4 ADD PUSH2 0x157 SWAP1 PUSH2 0xF21 JUMP JUMPDEST PUSH1 0x40 MLOAD DUP1 SWAP2 SUB SWAP1 REVERT JUMPDEST PUSH1 0x0 DUP1 DUP4 DUP2 SLOAD DUP2 LT PUSH2 0x175 JUMPI PUSH2 0x174 PUSH2 0xF41 JUMP JUMPDEST JUMPDEST SWAP1 PUSH1 0x0 MSTORE PUSH1 0x20 PUSH1 0x0 KECCAK256 SWAP1 PUSH1 0x4 MUL ADD PUSH1 0x40 MLOAD DUP1 PUSH1 0x80 ADD PUSH1 0x40 MSTORE SWAP1 DUP2 PUSH1 0x0 DUP3 ADD DUP1 SLOAD PUSH2 0x19E SWAP1 PUSH2 0xF9F JUMP JUMPDEST DUP1 PUSH1 0x1F ADD PUSH1 0x20 DUP1 SWAP2 DIV MUL PUSH1 0x20 ADD PUSH1 0x40 MLOAD SWAP1 DUP2 ADD PUSH1 0x40 MSTORE DUP1 SWAP3 SWAP2 SWAP1 DUP2 DUP2 MSTORE PUSH1 0x20 ADD DUP3 DUP1 SLOAD PUSH2 0x1CA SWAP1 PUSH2 0xF9F JUMP JUMPDEST DUP1 ISZERO PUSH2 0x217 JUMPI DUP1 PUSH1 0x1F LT PUSH2 0x1EC JUMPI PUSH2 0x100 DUP1 DUP4 SLOAD DIV MUL DUP4 MSTORE SWAP2 PUSH1 0x20 ADD SWAP2 PUSH2 0x217 JUMP JUMPDEST DUP3 ADD SWAP2 SWAP1 PUSH1 0x0 MSTORE PUSH1 0x20 PUSH1 0x0 KECCAK256 SWAP1 JUMPDEST DUP2 SLOAD DUP2 MSTORE SWAP1 PUSH1 0x1 ADD SWAP1 PUSH1 0x20 ADD DUP1 DUP4 GT PUSH2 0x1FA JUMPI DUP3 SWAP1 SUB PUSH1 0x1F AND DUP3 ADD SWAP2 JUMPDEST POP POP POP POP POP DUP2 MSTORE PUSH1 0x20 ADD PUSH1 0x1 DUP3 ADD DUP1 SLOAD PUSH2 0x230 SWAP1 PUSH2 0xF9F JUMP JUMPDEST DUP1 PUSH1 0x1F ADD PUSH1 0x20 DUP1 SWAP2 DIV MUL PUSH1 0x20 ADD PUSH1 0x40 MLOAD SWAP1 DUP2 ADD PUSH1 0x40 MSTORE DUP1 SWAP3 SWAP2 SWAP1 DUP2 DUP2 MSTORE PUSH1 0x20 ADD DUP3 DUP1 SLOAD PUSH2 0x25C SWAP1 PUSH2 0xF9F JUMP JUMPDEST DUP1 ISZERO PUSH2 0x2A9 JUMPI DUP1 PUSH1 0x1F LT PUSH2 0x27E JUMPI PUSH2 0x100 DUP1 DUP4 SLOAD DIV MUL DUP4 MSTORE SWAP2 PUSH1 0x20 ADD SWAP2 PUSH2 0x2A9 JUMP JUMPDEST DUP3 ADD SWAP2 SWAP1 PUSH1 0x0 MSTORE PUSH1 0x20 PUSH1 0x0 KECCAK256 SWAP1 JUMPDEST DUP2 SLOAD DUP2 MSTORE SWAP1 PUSH1 0x1 ADD SWAP1 PUSH1 0x20 ADD DUP1 DUP4 GT PUSH2 0x28C JUMPI DUP3 SWAP1 SUB PUSH1 0x1F AND DUP3 ADD SWAP2 JUMPDEST POP POP POP POP POP DUP2 MSTORE PUSH1 0x20 ADD PUSH1 0x2 DUP3 ADD DUP1 SLOAD PUSH2 0x2C2 SWAP1 PUSH2 0xF9F JUMP JUMPDEST DUP1 PUSH1 0x1F ADD PUSH1 0x20 DUP1 SWAP2 DIV MUL PUSH1 0x20 ADD PUSH1 0x40 MLOAD SWAP1 DUP2 ADD PUSH1 0x40 MSTORE DUP1 SWAP3 SWAP2 SWAP1 DUP2 DUP2 MSTORE PUSH1 0x20 ADD DUP3 DUP1 SLOAD PUSH2 0x2EE SWAP1 PUSH2 0xF9F JUMP JUMPDEST DUP1 ISZERO PUSH2 0x33B JUMPI DUP1 PUSH1 0x1F LT PUSH2 0x310 JUMPI PUSH2 0x100 DUP1 DUP4 SLOAD DIV MUL DUP4 MSTORE SWAP2 PUSH1 0x20 ADD SWAP2 PUSH2 0x33B JUMP JUMPDEST DUP3 ADD SWAP2 SWAP1 PUSH1 0x0 MSTORE PUSH1 0x20 PUSH1 0x0 KECCAK256 SWAP1 JUMPDEST DUP2 SLOAD DUP2 MSTORE SWAP1 PUSH1 0x1 ADD SWAP1 PUSH1 0x20 ADD DUP1 DUP4 GT PUSH2 0x31E JUMPI DUP3 SWAP1 SUB PUSH1 0x1F AND DUP3 ADD SWAP2 JUMPDEST POP POP POP POP POP DUP2 MSTORE PUSH1 0x20 ADD PUSH1 0x3 DUP3 ADD SLOAD DUP2 MSTORE POP POP SWAP1 POP DUP1 PUSH1 0x0 ADD MLOAD DUP2 PUSH1 0x20 ADD MLOAD DUP3 PUSH1 0x40 ADD MLOAD PUSH2 0x36C DUP5 PUSH1 0x60 ADD MLOAD PUSH2 0x838 JUMP JUMPDEST PUSH1 0x40 MLOAD PUSH1 0x20 ADD PUSH2 0x37F SWAP5 SWAP4 SWAP3 SWAP2 SWAP1 PUSH2 0x1058 JUMP JUMPDEST PUSH1 0x40 MLOAD PUSH1 0x20 DUP2 DUP4 SUB SUB DUP2 MSTORE SWAP1 PUSH1 0x40 MSTORE SWAP2 POP POP SWAP2 SWAP1 POP JUMP JUMPDEST PUSH1 0x0 PUSH1 0x40 MLOAD DUP1 PUSH1 0x80 ADD PUSH1 0x40 MSTORE DUP1 DUP6 DUP2 MSTORE PUSH1 0x20 ADD DUP5 DUP2 MSTORE PUSH1 0x20 ADD DUP4 DUP2 MSTORE PUSH1 0x20 ADD TIMESTAMP DUP2 MSTORE POP SWAP1 DUP1 PUSH1 0x1 DUP2 SLOAD ADD DUP1 DUP3 SSTORE DUP1 SWAP2 POP POP PUSH1 0x1 SWAP1 SUB SWAP1 PUSH1 0x0 MSTORE PUSH1 0x20 PUSH1 0x0 KECCAK256 SWAP1 PUSH1 0x4 MUL ADD PUSH1 0x0 SWAP1 SWAP2 SWAP1 SWAP2 SWAP1 SWAP2 POP PUSH1 0x0 DUP3 ADD MLOAD DUP2 PUSH1 0x0 ADD SWAP1 DUP2 PUSH2 0x3F7 SWAP2 SWAP1 PUSH2 0x1263 JUMP JUMPDEST POP PUSH1 0x20 DUP3 ADD MLOAD DUP2 PUSH1 0x1 ADD SWAP1 DUP2 PUSH2 0x40D SWAP2 SWAP1 PUSH2 0x1263 JUMP JUMPDEST POP PUSH1 0x40 DUP3 ADD MLOAD DUP2 PUSH1 0x2 ADD SWAP1 DUP2 PUSH2 0x423 SWAP2 SWAP1 PUSH2 0x1263 JUMP JUMPDEST POP PUSH1 0x60 DUP3 ADD MLOAD DUP2 PUSH1 0x3 ADD SSTORE POP POP POP POP POP JUMP JUMPDEST PUSH1 0x0 DUP1 DUP1 SLOAD SWAP1 POP SWAP1 POP SWAP1 JUMP JUMPDEST PUSH1 0x60 PUSH1 0x0 DUP1 SLOAD DUP1 PUSH1 0x20 MUL PUSH1 0x20 ADD PUSH1 0x40 MLOAD SWAP1 DUP2 ADD PUSH1 0x40 MSTORE DUP1 SWAP3 SWAP2 SWAP1 DUP2 DUP2 MSTORE PUSH1 0x20 ADD PUSH1 0x0 SWAP1 JUMPDEST DUP3 DUP3 LT ISZERO PUSH2 0x657 JUMPI DUP4 DUP3 SWAP1 PUSH1 0x0 MSTORE PUSH1 0x20 PUSH1 0x0 KECCAK256 SWAP1 PUSH1 0x4 MUL ADD PUSH1 0x40 MLOAD DUP1 PUSH1 0x80 ADD PUSH1 0x40 MSTORE SWAP1 DUP2 PUSH1 0x0 DUP3 ADD DUP1 SLOAD PUSH2 0x498 SWAP1 PUSH2 0xF9F JUMP JUMPDEST DUP1 PUSH1 0x1F ADD PUSH1 0x20 DUP1 SWAP2 DIV MUL PUSH1 0x20 ADD PUSH1 0x40 MLOAD SWAP1 DUP2 ADD PUSH1 0x40 MSTORE DUP1 SWAP3 SWAP2 SWAP1 DUP2 DUP2 MSTORE PUSH1 0x20 ADD DUP3 DUP1 SLOAD PUSH2 0x4C4 SWAP1 PUSH2 0xF9F JUMP JUMPDEST DUP1 ISZERO PUSH2 0x511 JUMPI DUP1 PUSH1 0x1F LT PUSH2 0x4E6 JUMPI PUSH2 0x100 DUP1 DUP4 SLOAD DIV MUL DUP4 MSTORE SWAP2 PUSH1 0x20 ADD SWAP2 PUSH2 0x511 JUMP JUMPDEST DUP3 ADD SWAP2 SWAP1 PUSH1 0x0 MSTORE PUSH1 0x20 PUSH1 0x0 KECCAK256 SWAP1 JUMPDEST DUP2 SLOAD DUP2 MSTORE SWAP1 PUSH1 0x1 ADD SWAP1 PUSH1 0x20 ADD DUP1 DUP4 GT PUSH2 0x4F4 JUMPI DUP3 SWAP1 SUB PUSH1 0x1F AND DUP3 ADD SWAP2 JUMPDEST POP POP POP POP POP DUP2 MSTORE PUSH1 0x20 ADD PUSH1 0x1 DUP3 ADD DUP1 SLOAD PUSH2 0x52A SWAP1 PUSH2 0xF9F JUMP JUMPDEST DUP1 PUSH1 0x1F ADD PUSH1 0x20 DUP1 SWAP2 DIV MUL PUSH1 0x20 ADD PUSH1 0x40 MLOAD SWAP1 DUP2 ADD PUSH1 0x40 MSTORE DUP1 SWAP3 SWAP2 SWAP1 DUP2 DUP2 MSTORE PUSH1 0x20 ADD DUP3 DUP1 SLOAD PUSH2 0x556 SWAP1 PUSH2 0xF9F JUMP JUMPDEST DUP1 ISZERO PUSH2 0x5A3 JUMPI DUP1 PUSH1 0x1F LT PUSH2 0x578 JUMPI PUSH2 0x100 DUP1 DUP4 SLOAD DIV MUL DUP4 MSTORE SWAP2 PUSH1 0x20 ADD SWAP2 PUSH2 0x5A3 JUMP JUMPDEST DUP3 ADD SWAP2 SWAP1 PUSH1 0x0 MSTORE PUSH1 0x20 PUSH1 0x0 KECCAK256 SWAP1 JUMPDEST DUP2 SLOAD DUP2 MSTORE SWAP1 PUSH1 0x1 ADD SWAP1 PUSH1 0x20 ADD DUP1 DUP4 GT PUSH2 0x586 JUMPI DUP3 SWAP1 SUB PUSH1 0x1F AND DUP3 ADD SWAP2 JUMPDEST POP POP POP POP POP DUP2 MSTORE PUSH1 0x20 ADD PUSH1 0x2 DUP3 ADD DUP1 SLOAD PUSH2 0x5BC SWAP1 PUSH2 0xF9F JUMP JUMPDEST DUP1 PUSH1 0x1F ADD PUSH1 0x20 DUP1 SWAP2 DIV MUL PUSH1 0x20 ADD PUSH1 0x40 MLOAD SWAP1 DUP2 ADD PUSH1 0x40 MSTORE DUP1 SWAP3 SWAP2 SWAP1 DUP2 DUP2 MSTORE PUSH1 0x20 ADD DUP3 DUP1 SLOAD PUSH2 0x5E8 SWAP1 PUSH2 0xF9F JUMP JUMPDEST DUP1 ISZERO PUSH2 0x635 JUMPI DUP1 PUSH1 0x1F LT PUSH2 0x60A JUMPI PUSH2 0x100 DUP1 DUP4 SLOAD DIV MUL DUP4 MSTORE SWAP2 PUSH1 0x20 ADD SWAP2 PUSH2 0x635 JUMP JUMPDEST DUP3 ADD SWAP2 SWAP1 PUSH1 0x0 MSTORE PUSH1 0x20 PUSH1 0x0 KECCAK256 SWAP1 JUMPDEST DUP2 SLOAD DUP2 MSTORE SWAP1 PUSH1 0x1 ADD SWAP1 PUSH1 0x20 ADD DUP1 DUP4 GT PUSH2 0x618 JUMPI DUP3 SWAP1 SUB PUSH1 0x1F AND DUP3 ADD SWAP2 JUMPDEST POP POP POP POP POP DUP2 MSTORE PUSH1 0x20 ADD PUSH1 0x3 DUP3 ADD SLOAD DUP2 MSTORE POP POP DUP2 MSTORE PUSH1 0x20 ADD SWAP1 PUSH1 0x1 ADD SWAP1 PUSH2 0x465 JUMP JUMPDEST POP POP POP POP SWAP1 POP SWAP1 JUMP JUMPDEST PUSH1 0x0 DUP2 DUP2 SLOAD DUP2 LT PUSH2 0x670 JUMPI PUSH1 0x0 DUP1 REVERT JUMPDEST SWAP1 PUSH1 0x0 MSTORE PUSH1 0x20 PUSH1 0x0 KECCAK256 SWAP1 PUSH1 0x4 MUL ADD PUSH1 0x0 SWAP2 POP SWAP1 POP DUP1 PUSH1 0x0 ADD DUP1 SLOAD PUSH2 0x693 SWAP1 PUSH2 0xF9F JUMP JUMPDEST DUP1 PUSH1 0x1F ADD PUSH1 0x20 DUP1 SWAP2 DIV MUL PUSH1 0x20 ADD PUSH1 0x40 MLOAD SWAP1 DUP2 ADD PUSH1 0x40 MSTORE DUP1 SWAP3 SWAP2 SWAP1 DUP2 DUP2 MSTORE PUSH1 0x20 ADD DUP3 DUP1 SLOAD PUSH2 0x6BF SWAP1 PUSH2 0xF9F JUMP JUMPDEST DUP1 ISZERO PUSH2 0x70C JUMPI DUP1 PUSH1 0x1F LT PUSH2 0x6E1 JUMPI PUSH2 0x100 DUP1 DUP4 SLOAD DIV MUL DUP4 MSTORE SWAP2 PUSH1 0x20 ADD SWAP2 PUSH2 0x70C JUMP JUMPDEST DUP3 ADD SWAP2 SWAP1 PUSH1 0x0 MSTORE PUSH1 0x20 PUSH1 0x0 KECCAK256 SWAP1 JUMPDEST DUP2 SLOAD DUP2 MSTORE SWAP1 PUSH1 0x1 ADD SWAP1 PUSH1 0x20 ADD DUP1 DUP4 GT PUSH2 0x6EF JUMPI DUP3 SWAP1 SUB PUSH1 0x1F AND DUP3 ADD SWAP2 JUMPDEST POP POP POP POP POP SWAP1 DUP1 PUSH1 0x1 ADD DUP1 SLOAD PUSH2 0x721 SWAP1 PUSH2 0xF9F JUMP JUMPDEST DUP1 PUSH1 0x1F ADD PUSH1 0x20 DUP1 SWAP2 DIV MUL PUSH1 0x20 ADD PUSH1 0x40 MLOAD SWAP1 DUP2 ADD PUSH1 0x40 MSTORE DUP1 SWAP3 SWAP2 SWAP1 DUP2 DUP2 MSTORE PUSH1 0x20 ADD DUP3 DUP1 SLOAD PUSH2 0x74D SWAP1 PUSH2 0xF9F JUMP JUMPDEST DUP1 ISZERO PUSH2 0x79A JUMPI DUP1 PUSH1 0x1F LT PUSH2 0x76F JUMPI PUSH2 0x100 DUP1 DUP4 SLOAD DIV MUL DUP4 MSTORE SWAP2 PUSH1 0x20 ADD SWAP2 PUSH2 0x79A JUMP JUMPDEST DUP3 ADD SWAP2 SWAP1 PUSH1 0x0 MSTORE PUSH1 0x20 PUSH1 0x0 KECCAK256 SWAP1 JUMPDEST DUP2 SLOAD DUP2 MSTORE SWAP1 PUSH1 0x1 ADD SWAP1 PUSH1 0x20 ADD DUP1 DUP4 GT PUSH2 0x77D JUMPI DUP3 SWAP1 SUB PUSH1 0x1F AND DUP3 ADD SWAP2 JUMPDEST POP POP POP POP POP SWAP1 DUP1 PUSH1 0x2 ADD DUP1 SLOAD PUSH2 0x7AF SWAP1 PUSH2 0xF9F JUMP JUMPDEST DUP1 PUSH1 0x1F ADD PUSH1 0x20 DUP1 SWAP2 DIV MUL PUSH1 0x20 ADD PUSH1 0x40 MLOAD SWAP1 DUP2 ADD PUSH1 0x40 MSTORE DUP1 SWAP3 SWAP2 SWAP1 DUP2 DUP2 MSTORE PUSH1 0x20 ADD DUP3 DUP1 SLOAD PUSH2 0x7DB SWAP1 PUSH2 0xF9F JUMP JUMPDEST DUP1 ISZERO PUSH2 0x828 JUMPI DUP1 PUSH1 0x1F LT PUSH2 0x7FD JUMPI PUSH2 0x100 DUP1 DUP4 SLOAD DIV MUL DUP4 MSTORE SWAP2 PUSH1 0x20 ADD SWAP2 PUSH2 0x828 JUMP JUMPDEST DUP3 ADD SWAP2 SWAP1 PUSH1 0x0 MSTORE PUSH1 0x20 PUSH1 0x0 KECCAK256 SWAP1 JUMPDEST DUP2 SLOAD DUP2 MSTORE SWAP1 PUSH1 0x1 ADD SWAP1 PUSH1 0x20 ADD DUP1 DUP4 GT PUSH2 0x80B JUMPI DUP3 SWAP1 SUB PUSH1 0x1F AND DUP3 ADD SWAP2 JUMPDEST POP POP POP POP POP SWAP1 DUP1 PUSH1 0x3 ADD SLOAD SWAP1 POP DUP5 JUMP JUMPDEST PUSH1 0x60 PUSH1 0x0 DUP3 SUB PUSH2 0x87F JUMPI PUSH1 0x40 MLOAD DUP1 PUSH1 0x40 ADD PUSH1 0x40 MSTORE DUP1 PUSH1 0x1 DUP2 MSTORE PUSH1 0x20 ADD PUSH32 0x3000000000000000000000000000000000000000000000000000000000000000 DUP2 MSTORE POP SWAP1 POP PUSH2 0x999 JUMP JUMPDEST PUSH1 0x0 DUP3 SWAP1 POP PUSH1 0x0 JUMPDEST PUSH1 0x0 DUP3 EQ PUSH2 0x8B1 JUMPI DUP1 DUP1 PUSH2 0x89A SWAP1 PUSH2 0x1364 JUMP JUMPDEST SWAP2 POP POP PUSH1 0xA DUP3 PUSH2 0x8AA SWAP2 SWAP1 PUSH2 0x13DB JUMP JUMPDEST SWAP2 POP PUSH2 0x887 JUMP JUMPDEST PUSH1 0x0 DUP2 PUSH8 0xFFFFFFFFFFFFFFFF DUP2 GT ISZERO PUSH2 0x8CD JUMPI PUSH2 0x8CC PUSH2 0xAD1 JUMP JUMPDEST JUMPDEST PUSH1 0x40 MLOAD SWAP1 DUP1 DUP3 MSTORE DUP1 PUSH1 0x1F ADD PUSH1 0x1F NOT AND PUSH1 0x20 ADD DUP3 ADD PUSH1 0x40 MSTORE DUP1 ISZERO PUSH2 0x8FF JUMPI DUP2 PUSH1 0x20 ADD PUSH1 0x1 DUP3 MUL DUP1 CALLDATASIZE DUP4 CALLDATACOPY DUP1 DUP3 ADD SWAP2 POP POP SWAP1 POP JUMPDEST POP SWAP1 POP PUSH1 0x0 DUP3 SWAP1 POP DUP6 SWAP4 POP JUMPDEST PUSH1 0x0 DUP5 EQ PUSH2 0x991 JUMPI PUSH1 0xA DUP5 PUSH2 0x920 SWAP2 SWAP1 PUSH2 0x140C JUMP JUMPDEST PUSH1 0x30 PUSH2 0x92C SWAP2 SWAP1 PUSH2 0x143D JUMP JUMPDEST PUSH1 0xF8 SHL DUP3 DUP3 PUSH2 0x93A SWAP1 PUSH2 0x1471 JUMP JUMPDEST SWAP3 POP DUP3 DUP2 MLOAD DUP2 LT PUSH2 0x94E JUMPI PUSH2 0x94D PUSH2 0xF41 JUMP JUMPDEST JUMPDEST PUSH1 0x20 ADD ADD SWAP1 PUSH31 0xFFFFFFFFFFFFFFFFFFFFFFFFFFFFFFFFFFFFFFFFFFFFFFFFFFFFFFFFFFFFFF NOT AND SWAP1 DUP2 PUSH1 0x0 BYTE SWAP1 MSTORE8 POP PUSH1 0xA DUP5 PUSH2 0x98A SWAP2 SWAP1 PUSH2 0x13DB JUMP JUMPDEST SWAP4 POP PUSH2 0x90B JUMP JUMPDEST DUP2 SWAP5 POP POP POP POP POP JUMPDEST SWAP2 SWAP1 POP JUMP JUMPDEST PUSH1 0x0 PUSH1 0x40 MLOAD SWAP1 POP SWAP1 JUMP JUMPDEST PUSH1 0x0 DUP1 REVERT JUMPDEST PUSH1 0x0 DUP1 REVERT JUMPDEST PUSH1 0x0 DUP2 SWAP1 POP SWAP2 SWAP1 POP JUMP JUMPDEST PUSH2 0x9C5 DUP2 PUSH2 0x9B2 JUMP JUMPDEST DUP2 EQ PUSH2 0x9D0 JUMPI PUSH1 0x0 DUP1 REVERT JUMPDEST POP JUMP JUMPDEST PUSH1 0x0 DUP2 CALLDATALOAD SWAP1 POP PUSH2 0x9E2 DUP2 PUSH2 0x9BC JUMP JUMPDEST SWAP3 SWAP2 POP POP JUMP JUMPDEST PUSH1 0x0 PUSH1 0x20 DUP3 DUP5 SUB SLT ISZERO PUSH2 0x9FE JUMPI PUSH2 0x9FD PUSH2 0x9A8 JUMP JUMPDEST JUMPDEST PUSH1 0x0 PUSH2 0xA0C DUP5 DUP3 DUP6 ADD PUSH2 0x9D3 JUMP JUMPDEST SWAP2 POP POP SWAP3 SWAP2 POP POP JUMP JUMPDEST PUSH1 0x0 DUP2 MLOAD SWAP1 POP SWAP2 SWAP1 POP JUMP JUMPDEST PUSH1 0x0 DUP3 DUP3 MSTORE PUSH1 0x20 DUP3 ADD SWAP1 POP SWAP3 SWAP2 POP POP JUMP JUMPDEST PUSH1 0x0 JUMPDEST DUP4 DUP2 LT ISZERO PUSH2 0xA4F JUMPI DUP1 DUP3 ADD MLOAD DUP2 DUP5 ADD MSTORE PUSH1 0x20 DUP2 ADD SWAP1 POP PUSH2 0xA34 JUMP JUMPDEST PUSH1 0x0 DUP5 DUP5 ADD MSTORE POP POP POP POP JUMP JUMPDEST PUSH1 0x0 PUSH1 0x1F NOT PUSH1 0x1F DUP4 ADD AND SWAP1 POP SWAP2 SWAP1 POP JUMP JUMPDEST PUSH1 0x0 PUSH2 0xA77 DUP3 PUSH2 0xA15 JUMP JUMPDEST PUSH2 0xA81 DUP2 DUP6 PUSH2 0xA20 JUMP JUMPDEST SWAP4 POP PUSH2 0xA91 DUP2 DUP6 PUSH1 0x20 DUP7 ADD PUSH2 0xA31 JUMP JUMPDEST PUSH2 0xA9A DUP2 PUSH2 0xA5B JUMP JUMPDEST DUP5 ADD SWAP2 POP POP SWAP3 SWAP2 POP POP JUMP JUMPDEST PUSH1 0x0 PUSH1 0x20 DUP3 ADD SWAP1 POP DUP2 DUP2 SUB PUSH1 0x0 DUP4 ADD MSTORE PUSH2 0xABF DUP2 DUP5 PUSH2 0xA6C JUMP JUMPDEST SWAP1 POP SWAP3 SWAP2 POP POP JUMP JUMPDEST PUSH1 0x0 DUP1 REVERT JUMPDEST PUSH1 0x0 DUP1 REVERT JUMPDEST PUSH32 0x4E487B7100000000000000000000000000000000000000000000000000000000 PUSH1 0x0 MSTORE PUSH1 0x41 PUSH1 0x4 MSTORE PUSH1 0x24 PUSH1 0x0 REVERT JUMPDEST PUSH2 0xB09 DUP3 PUSH2 0xA5B JUMP JUMPDEST DUP2 ADD DUP2 DUP2 LT PUSH8 0xFFFFFFFFFFFFFFFF DUP3 GT OR ISZERO PUSH2 0xB28 JUMPI PUSH2 0xB27 PUSH2 0xAD1 JUMP JUMPDEST JUMPDEST DUP1 PUSH1 0x40 MSTORE POP POP POP JUMP JUMPDEST PUSH1 0x0 PUSH2 0xB3B PUSH2 0x99E JUMP JUMPDEST SWAP1 POP PUSH2 0xB47 DUP3 DUP3 PUSH2 0xB00 JUMP JUMPDEST SWAP2 SWAP1 POP JUMP JUMPDEST PUSH1 0x0 PUSH8 0xFFFFFFFFFFFFFFFF DUP3 GT ISZERO PUSH2 0xB67 JUMPI PUSH2 0xB66 PUSH2 0xAD1 JUMP JUMPDEST JUMPDEST PUSH2 0xB70 DUP3 PUSH2 0xA5B JUMP JUMPDEST SWAP1 POP PUSH1 0x20 DUP2 ADD SWAP1 POP SWAP2 SWAP1 POP JUMP JUMPDEST DUP3 DUP2 DUP4 CALLDATACOPY PUSH1 0x0 DUP4 DUP4 ADD MSTORE POP POP POP JUMP JUMPDEST PUSH1 0x0 PUSH2 0xB9F PUSH2 0xB9A DUP5 PUSH2 0xB4C JUMP JUMPDEST PUSH2 0xB31 JUMP JUMPDEST SWAP1 POP DUP3 DUP2 MSTORE PUSH1 0x20 DUP2 ADD DUP5 DUP5 DUP5 ADD GT ISZERO PUSH2 0xBBB JUMPI PUSH2 0xBBA PUSH2 0xACC JUMP JUMPDEST JUMPDEST PUSH2 0xBC6 DUP5 DUP3 DUP6 PUSH2 0xB7D JUMP JUMPDEST POP SWAP4 SWAP3 POP POP POP JUMP JUMPDEST PUSH1 0x0 DUP3 PUSH1 0x1F DUP4 ADD SLT PUSH2 0xBE3 JUMPI PUSH2 0xBE2 PUSH2 0xAC7 JUMP JUMPDEST JUMPDEST DUP2 CALLDATALOAD PUSH2 0xBF3 DUP5 DUP3 PUSH1 0x20 DUP7 ADD PUSH2 0xB8C JUMP JUMPDEST SWAP2 POP POP SWAP3 SWAP2 POP POP JUMP JUMPDEST PUSH1 0x0 DUP1 PUSH1 0x0 PUSH1 0x60 DUP5 DUP7 SUB SLT ISZERO PUSH2 0xC15 JUMPI PUSH2 0xC14 PUSH2 0x9A8 JUMP JUMPDEST JUMPDEST PUSH1 0x0 DUP5 ADD CALLDATALOAD PUSH8 0xFFFFFFFFFFFFFFFF DUP2 GT ISZERO PUSH2 0xC33 JUMPI PUSH2 0xC32 PUSH2 0x9AD JUMP JUMPDEST JUMPDEST PUSH2 0xC3F DUP7 DUP3 DUP8 ADD PUSH2 0xBCE JUMP JUMPDEST SWAP4 POP POP PUSH1 0x20 DUP5 ADD CALLDATALOAD PUSH8 0xFFFFFFFFFFFFFFFF DUP2 GT ISZERO PUSH2 0xC60 JUMPI PUSH2 0xC5F PUSH2 0x9AD JUMP JUMPDEST JUMPDEST PUSH2 0xC6C DUP7 DUP3 DUP8 ADD PUSH2 0xBCE JUMP JUMPDEST SWAP3 POP POP PUSH1 0x40 DUP5 ADD CALLDATALOAD PUSH8 0xFFFFFFFFFFFFFFFF DUP2 GT ISZERO PUSH2 0xC8D JUMPI PUSH2 0xC8C PUSH2 0x9AD JUMP JUMPDEST JUMPDEST PUSH2 0xC99 DUP7 DUP3 DUP8 ADD PUSH2 0xBCE JUMP JUMPDEST SWAP2 POP POP SWAP3 POP SWAP3 POP SWAP3 JUMP JUMPDEST PUSH2 0xCAC DUP2 PUSH2 0x9B2 JUMP JUMPDEST DUP3 MSTORE POP POP JUMP JUMPDEST PUSH1 0x0 PUSH1 0x20 DUP3 ADD SWAP1 POP PUSH2 0xCC7 PUSH1 0x0 DUP4 ADD DUP5 PUSH2 0xCA3 JUMP JUMPDEST SWAP3 SWAP2 POP POP JUMP JUMPDEST PUSH1 0x0 DUP2 MLOAD SWAP1 POP SWAP2 SWAP1 POP JUMP JUMPDEST PUSH1 0x0 DUP3 DUP3 MSTORE PUSH1 0x20 DUP3 ADD SWAP1 POP SWAP3 SWAP2 POP POP JUMP JUMPDEST PUSH1 0x0 DUP2 SWAP1 POP PUSH1 0x20 DUP3 ADD SWAP1 POP SWAP2 SWAP1 POP JUMP JUMPDEST PUSH1 0x0 DUP3 DUP3 MSTORE PUSH1 0x20 DUP3 ADD SWAP1 POP SWAP3 SWAP2 POP POP JUMP JUMPDEST PUSH1 0x0 PUSH2 0xD15 DUP3 PUSH2 0xA15 JUMP JUMPDEST PUSH2 0xD1F DUP2 DUP6 PUSH2 0xCF9 JUMP JUMPDEST SWAP4 POP PUSH2 0xD2F DUP2 DUP6 PUSH1 0x20 DUP7 ADD PUSH2 0xA31 JUMP JUMPDEST PUSH2 0xD38 DUP2 PUSH2 0xA5B JUMP JUMPDEST DUP5 ADD SWAP2 POP POP SWAP3 SWAP2 POP POP JUMP JUMPDEST PUSH2 0xD4C DUP2 PUSH2 0x9B2 JUMP JUMPDEST DUP3 MSTORE POP POP JUMP JUMPDEST PUSH1 0x0 PUSH1 0x80 DUP4 ADD PUSH1 0x0 DUP4 ADD MLOAD DUP5 DUP3 SUB PUSH1 0x0 DUP7 ADD MSTORE PUSH2 0xD6F DUP3 DUP3 PUSH2 0xD0A JUMP JUMPDEST SWAP2 POP POP PUSH1 0x20 DUP4 ADD MLOAD DUP5 DUP3 SUB PUSH1 0x20 DUP7 ADD MSTORE PUSH2 0xD89 DUP3 DUP3 PUSH2 0xD0A JUMP JUMPDEST SWAP2 POP POP PUSH1 0x40 DUP4 ADD MLOAD DUP5 DUP3 SUB PUSH1 0x40 DUP7 ADD MSTORE PUSH2 0xDA3 DUP3 DUP3 PUSH2 0xD0A JUMP JUMPDEST SWAP2 POP POP PUSH1 0x60 DUP4 ADD MLOAD PUSH2 0xDB8 PUSH1 0x60 DUP7 ADD DUP3 PUSH2 0xD43 JUMP JUMPDEST POP DUP1 SWAP2 POP POP SWAP3 SWAP2 POP POP JUMP JUMPDEST PUSH1 0x0 PUSH2 0xDCF DUP4 DUP4 PUSH2 0xD52 JUMP JUMPDEST SWAP1 POP SWAP3 SWAP2 POP POP JUMP JUMPDEST PUSH1 0x0 PUSH1 0x20 DUP3 ADD SWAP1 POP SWAP2 SWAP1 POP JUMP JUMPDEST PUSH1 0x0 PUSH2 0xDEF DUP3 PUSH2 0xCCD JUMP JUMPDEST PUSH2 0xDF9 DUP2 DUP6 PUSH2 0xCD8 JUMP JUMPDEST SWAP4 POP DUP4 PUSH1 0x20 DUP3 MUL DUP6 ADD PUSH2 0xE0B DUP6 PUSH2 0xCE9 JUMP JUMPDEST DUP1 PUSH1 0x0 JUMPDEST DUP6 DUP2 LT ISZERO PUSH2 0xE47 JUMPI DUP5 DUP5 SUB DUP10 MSTORE DUP2 MLOAD PUSH2 0xE28 DUP6 DUP3 PUSH2 0xDC3 JUMP JUMPDEST SWAP5 POP PUSH2 0xE33 DUP4 PUSH2 0xDD7 JUMP JUMPDEST SWAP3 POP PUSH1 0x20 DUP11 ADD SWAP10 POP POP PUSH1 0x1 DUP2 ADD SWAP1 POP PUSH2 0xE0F JUMP JUMPDEST POP DUP3 SWAP8 POP DUP8 SWAP6 POP POP POP POP POP POP SWAP3 SWAP2 POP POP JUMP JUMPDEST PUSH1 0x0 PUSH1 0x20 DUP3 ADD SWAP1 POP DUP2 DUP2 SUB PUSH1 0x0 DUP4 ADD MSTORE PUSH2 0xE73 DUP2 DUP5 PUSH2 0xDE4 JUMP JUMPDEST SWAP1 POP SWAP3 SWAP2 POP POP JUMP JUMPDEST PUSH1 0x0 PUSH1 0x80 DUP3 ADD SWAP1 POP DUP2 DUP2 SUB PUSH1 0x0 DUP4 ADD MSTORE PUSH2 0xE95 DUP2 DUP8 PUSH2 0xA6C JUMP JUMPDEST SWAP1 POP DUP2 DUP2 SUB PUSH1 0x20 DUP4 ADD MSTORE PUSH2 0xEA9 DUP2 DUP7 PUSH2 0xA6C JUMP JUMPDEST SWAP1 POP DUP2 DUP2 SUB PUSH1 0x40 DUP4 ADD MSTORE PUSH2 0xEBD DUP2 DUP6 PUSH2 0xA6C JUMP JUMPDEST SWAP1 POP PUSH2 0xECC PUSH1 0x60 DUP4 ADD DUP5 PUSH2 0xCA3 JUMP JUMPDEST SWAP6 SWAP5 POP POP POP POP POP JUMP JUMPDEST PUSH32 0x496E76616C696420696E64657800000000000000000000000000000000000000 PUSH1 0x0 DUP3 ADD MSTORE POP JUMP JUMPDEST PUSH1 0x0 PUSH2 0xF0B PUSH1 0xD DUP4 PUSH2 0xA20 JUMP JUMPDEST SWAP2 POP PUSH2 0xF16 DUP3 PUSH2 0xED5 JUMP JUMPDEST PUSH1 0x20 DUP3 ADD SWAP1 POP SWAP2 SWAP1 POP JUMP JUMPDEST PUSH1 0x0 PUSH1 0x20 DUP3 ADD SWAP1 POP DUP2 DUP2 SUB PUSH1 0x0 DUP4 ADD MSTORE PUSH2 0xF3A DUP2 PUSH2 0xEFE JUMP JUMPDEST SWAP1 POP SWAP2 SWAP1 POP JUMP JUMPDEST PUSH32 0x4E487B7100000000000000000000000000000000000000000000000000000000 PUSH1 0x0 MSTORE PUSH1 0x32 PUSH1 0x4 MSTORE PUSH1 0x24 PUSH1 0x0 REVERT JUMPDEST PUSH32 0x4E487B7100000000000000000000000000000000000000000000000000000000 PUSH1 0x0 MSTORE PUSH1 0x22 PUSH1 0x4 MSTORE PUSH1 0x24 PUSH1 0x0 REVERT JUMPDEST PUSH1 0x0 PUSH1 0x2 DUP3 DIV SWAP1 POP PUSH1 0x1 DUP3 AND DUP1 PUSH2 0xFB7 JUMPI PUSH1 0x7F DUP3 AND SWAP2 POP JUMPDEST PUSH1 0x20 DUP3 LT DUP2 SUB PUSH2 0xFCA JUMPI PUSH2 0xFC9 PUSH2 0xF70 JUMP JUMPDEST JUMPDEST POP SWAP2 SWAP1 POP JUMP JUMPDEST PUSH1 0x0 DUP2 SWAP1 POP SWAP3 SWAP2 POP POP JUMP JUMPDEST PUSH1 0x0 PUSH2 0xFE6 DUP3 PUSH2 0xA15 JUMP JUMPDEST PUSH2 0xFF0 DUP2 DUP6 PUSH2 0xFD0 JUMP JUMPDEST SWAP4 POP PUSH2 0x1000 DUP2 DUP6 PUSH1 0x20 DUP7 ADD PUSH2 0xA31 JUMP JUMPDEST DUP1 DUP5 ADD SWAP2 POP POP SWAP3 SWAP2 POP POP JUMP JUMPDEST PUSH32 0x2000000000000000000000000000000000000000000000000000000000000000 PUSH1 0x0 DUP3 ADD MSTORE POP JUMP JUMPDEST PUSH1 0x0 PUSH2 0x1042 PUSH1 0x1 DUP4 PUSH2 0xFD0 JUMP JUMPDEST SWAP2 POP PUSH2 0x104D DUP3 PUSH2 0x100C JUMP JUMPDEST PUSH1 0x1 DUP3 ADD SWAP1 POP SWAP2 SWAP1 POP JUMP JUMPDEST PUSH1 0x0 PUSH2 0x1064 DUP3 DUP8 PUSH2 0xFDB JUMP JUMPDEST SWAP2 POP PUSH2 0x106F DUP3 PUSH2 0x1035 JUMP JUMPDEST SWAP2 POP PUSH2 0x107B DUP3 DUP7 PUSH2 0xFDB JUMP JUMPDEST SWAP2 POP PUSH2 0x1086 DUP3 PUSH2 0x1035 JUMP JUMPDEST SWAP2 POP PUSH2 0x1092 DUP3 DUP6 PUSH2 0xFDB JUMP JUMPDEST SWAP2 POP PUSH2 0x109D DUP3 PUSH2 0x1035 JUMP JUMPDEST SWAP2 POP PUSH2 0x10A9 DUP3 DUP5 PUSH2 0xFDB JUMP JUMPDEST SWAP2 POP DUP2 SWAP1 POP SWAP6 SWAP5 POP POP POP POP POP JUMP JUMPDEST PUSH1 0x0 DUP2 SWAP1 POP DUP2 PUSH1 0x0 MSTORE PUSH1 0x20 PUSH1 0x0 KECCAK256 SWAP1 POP SWAP2 SWAP1 POP JUMP JUMPDEST PUSH1 0x0 PUSH1 0x20 PUSH1 0x1F DUP4 ADD DIV SWAP1 POP SWAP2 SWAP1 POP JUMP JUMPDEST PUSH1 0x0 DUP3 DUP3 SHL SWAP1 POP SWAP3 SWAP2 POP POP JUMP JUMPDEST PUSH1 0x0 PUSH1 0x8 DUP4 MUL PUSH2 0x1119 PUSH32 0xFFFFFFFFFFFFFFFFFFFFFFFFFFFFFFFFFFFFFFFFFFFFFFFFFFFFFFFFFFFFFFFF DUP3 PUSH2 0x10DC JUMP JUMPDEST PUSH2 0x1123 DUP7 DUP4 PUSH2 0x10DC JUMP JUMPDEST SWAP6 POP DUP1 NOT DUP5 AND SWAP4 POP DUP1 DUP7 AND DUP5 OR SWAP3 POP POP POP SWAP4 SWAP3 POP POP POP JUMP JUMPDEST PUSH1 0x0 DUP2 SWAP1 POP SWAP2 SWAP1 POP JUMP JUMPDEST PUSH1 0x0 PUSH2 0x1160 PUSH2 0x115B PUSH2 0x1156 DUP5 PUSH2 0x9B2 JUMP JUMPDEST PUSH2 0x113B JUMP JUMPDEST PUSH2 0x9B2 JUMP JUMPDEST SWAP1 POP SWAP2 SWAP1 POP JUMP JUMPDEST PUSH1 0x0 DUP2 SWAP1 POP SWAP2 SWAP1 POP JUMP JUMPDEST PUSH2 0x117A DUP4 PUSH2 0x1145 JUMP JUMPDEST PUSH2 0x118E PUSH2 0x1186 DUP3 PUSH2 0x1167 JUMP JUMPDEST DUP5 DUP5 SLOAD PUSH2 0x10E9 JUMP JUMPDEST DUP3 SSTORE POP POP POP POP JUMP JUMPDEST PUSH1 0x0 SWAP1 JUMP JUMPDEST PUSH2 0x11A3 PUSH2 0x1196 JUMP JUMPDEST PUSH2 0x11AE DUP2 DUP5 DUP5 PUSH2 0x1171 JUMP JUMPDEST POP POP POP JUMP JUMPDEST JUMPDEST DUP2 DUP2 LT ISZERO PUSH2 0x11D2 JUMPI PUSH2 0x11C7 PUSH1 0x0 DUP3 PUSH2 0x119B JUMP JUMPDEST PUSH1 0x1 DUP2 ADD SWAP1 POP PUSH2 0x11B4 JUMP JUMPDEST POP POP JUMP JUMPDEST PUSH1 0x1F DUP3 GT ISZERO PUSH2 0x1217 JUMPI PUSH2 0x11E8 DUP2 PUSH2 0x10B7 JUMP JUMPDEST PUSH2 0x11F1 DUP5 PUSH2 0x10CC JUMP JUMPDEST DUP2 ADD PUSH1 0x20 DUP6 LT ISZERO PUSH2 0x1200 JUMPI DUP2 SWAP1 POP JUMPDEST PUSH2 0x1214 PUSH2 0x120C DUP6 PUSH2 0x10CC JUMP JUMPDEST DUP4 ADD DUP3 PUSH2 0x11B3 JUMP JUMPDEST POP POP JUMPDEST POP POP POP JUMP JUMPDEST PUSH1 0x0 DUP3 DUP3 SHR SWAP1 POP SWAP3 SWAP2 POP POP JUMP JUMPDEST PUSH1 0x0 PUSH2 0x123A PUSH1 0x0 NOT DUP5 PUSH1 0x8 MUL PUSH2 0x121C JUMP JUMPDEST NOT DUP1 DUP4 AND SWAP2 POP POP SWAP3 SWAP2 POP POP JUMP JUMPDEST PUSH1 0x0 PUSH2 0x1253 DUP4 DUP4 PUSH2 0x1229 JUMP JUMPDEST SWAP2 POP DUP3 PUSH1 0x2 MUL DUP3 OR SWAP1 POP SWAP3 SWAP2 POP POP JUMP JUMPDEST PUSH2 0x126C DUP3 PUSH2 0xA15 JUMP JUMPDEST PUSH8 0xFFFFFFFFFFFFFFFF DUP2 GT ISZERO PUSH2 0x1285 JUMPI PUSH2 0x1284 PUSH2 0xAD1 JUMP JUMPDEST JUMPDEST PUSH2 0x128F DUP3 SLOAD PUSH2 0xF9F JUMP JUMPDEST PUSH2 0x129A DUP3 DUP3 DUP6 PUSH2 0x11D6 JUMP JUMPDEST PUSH1 0x0 PUSH1 0x20 SWAP1 POP PUSH1 0x1F DUP4 GT PUSH1 0x1 DUP2 EQ PUSH2 0x12CD JUMPI PUSH1 0x0 DUP5 ISZERO PUSH2 0x12BB JUMPI DUP3 DUP8 ADD MLOAD SWAP1 POP JUMPDEST PUSH2 0x12C5 DUP6 DUP3 PUSH2 0x1247 JUMP JUMPDEST DUP7 SSTORE POP PUSH2 0x132D JUMP JUMPDEST PUSH1 0x1F NOT DUP5 AND PUSH2 0x12DB DUP7 PUSH2 0x10B7 JUMP JUMPDEST PUSH1 0x0 JUMPDEST DUP3 DUP2 LT ISZERO PUSH2 0x1303 JUMPI DUP5 DUP10 ADD MLOAD DUP3 SSTORE PUSH1 0x1 DUP3 ADD SWAP2 POP PUSH1 0x20 DUP6 ADD SWAP5 POP PUSH1 0x20 DUP2 ADD SWAP1 POP PUSH2 0x12DE JUMP JUMPDEST DUP7 DUP4 LT ISZERO PUSH2 0x1320 JUMPI DUP5 DUP10 ADD MLOAD PUSH2 0x131C PUSH1 0x1F DUP10 AND DUP3 PUSH2 0x1229 JUMP JUMPDEST DUP4 SSTORE POP JUMPDEST PUSH1 0x1 PUSH1 0x2 DUP9 MUL ADD DUP9 SSTORE POP POP POP JUMPDEST POP POP POP POP POP POP JUMP JUMPDEST PUSH32 0x4E487B7100000000000000000000000000000000000000000000000000000000 PUSH1 0x0 MSTORE PUSH1 0x11 PUSH1 0x4 MSTORE PUSH1 0x24 PUSH1 0x0 REVERT JUMPDEST PUSH1 0x0 PUSH2 0x136F DUP3 PUSH2 0x9B2 JUMP JUMPDEST SWAP2 POP PUSH32 0xFFFFFFFFFFFFFFFFFFFFFFFFFFFFFFFFFFFFFFFFFFFFFFFFFFFFFFFFFFFFFFFF DUP3 SUB PUSH2 0x13A1 JUMPI PUSH2 0x13A0 PUSH2 0x1335 JUMP JUMPDEST JUMPDEST PUSH1 0x1 DUP3 ADD SWAP1 POP SWAP2 SWAP1 POP JUMP JUMPDEST PUSH32 0x4E487B7100000000000000000000000000000000000000000000000000000000 PUSH1 0x0 MSTORE PUSH1 0x12 PUSH1 0x4 MSTORE PUSH1 0x24 PUSH1 0x0 REVERT JUMPDEST PUSH1 0x0 PUSH2 0x13E6 DUP3 PUSH2 0x9B2 JUMP JUMPDEST SWAP2 POP PUSH2 0x13F1 DUP4 PUSH2 0x9B2 JUMP JUMPDEST SWAP3 POP DUP3 PUSH2 0x1401 JUMPI PUSH2 0x1400 PUSH2 0x13AC JUMP JUMPDEST JUMPDEST DUP3 DUP3 DIV SWAP1 POP SWAP3 SWAP2 POP POP JUMP JUMPDEST PUSH1 0x0 PUSH2 0x1417 DUP3 PUSH2 0x9B2 JUMP JUMPDEST SWAP2 POP PUSH2 0x1422 DUP4 PUSH2 0x9B2 JUMP JUMPDEST SWAP3 POP DUP3 PUSH2 0x1432 JUMPI PUSH2 0x1431 PUSH2 0x13AC JUMP JUMPDEST JUMPDEST DUP3 DUP3 MOD SWAP1 POP SWAP3 SWAP2 POP POP JUMP JUMPDEST PUSH1 0x0 PUSH2 0x1448 DUP3 PUSH2 0x9B2 JUMP JUMPDEST SWAP2 POP PUSH2 0x1453 DUP4 PUSH2 0x9B2 JUMP JUMPDEST SWAP3 POP DUP3 DUP3 ADD SWAP1 POP DUP1 DUP3 GT ISZERO PUSH2 0x146B JUMPI PUSH2 0x146A PUSH2 0x1335 JUMP JUMPDEST JUMPDEST SWAP3 SWAP2 POP POP JUMP JUMPDEST PUSH1 0x0 PUSH2 0x147C DUP3 PUSH2 0x9B2 JUMP JUMPDEST SWAP2 POP PUSH1 0x0 DUP3 SUB PUSH2 0x148F JUMPI PUSH2 0x148E PUSH2 0x1335 JUMP JUMPDEST JUMPDEST PUSH1 0x1 DUP3 SUB SWAP1 POP SWAP2 SWAP1 POP JUMP INVALID LOG2 PUSH5 0x6970667358 0x22 SLT KECCAK256 CALL CALLVALUE 0xF 0xAC 0xC9 0x2F DUP6 PUSH32 0x8FB6338DE0B8554D804D9ED3C61C0464677BC15DC5ED420D64736F6C63430008 SHR STOP CALLER "
        },
        "methodIdentifiers": {
          "getAllLogs()": "e581329b",
          "getLog(uint256)": "3206b2c6",
          "logStageEvent(string,string,string)": "6c8fd487",
          "logs(uint256)": "e79899bd",
          "totalLogs()": "e4ce0662"
        }
      }
    }
  }
}