{
  "_format": "hh-sol-artifact-1",
  "contractName": "SupplyChain",
  "sourceName": "contracts/SupplyChain.sol",
  "abi": [
    {
      "inputs": [],
      "name": "getAllLogs",
      "outputs": [
        {
          "components": [
            {
              "internalType": "string",
              "name": "uid",
              "type": "string"
            },
            {
              "internalType": "string",
              "name": "stage",
              "type": "string"
            },
            {
              "internalType": "string",
              "name": "action",
              "type": "string"
            },
            {
              "internalType": "uint256",
              "name": "timestamp",
              "type": "uint256"
            }
          ],
          "internalType": "struct SupplyChain.StageEvent[]",
          "name": "",
          "type": "tuple[]"
        }
      ],
      "stateMutability": "view",
      "type": "function"
    },
    {
      "inputs": [
        {
          "internalType": "string",
          "name": "uid",
          "type": "string"
        },
        {
          "internalType": "string",
          "name": "stage",
          "type": "string"
        },
        {
          "internalType": "string",
          "name": "action",
          "type": "string"
        }
      ],
      "name": "logStageEvent",
      "outputs": [],
      "stateMutability": "nonpayable",
      "type": "function"
    },
    {
      "inputs": [
        {
          "internalType": "uint256",
          "name": "",
          "type": "uint256"
        }
      ],
      "name": "logs",
      "outputs": [
        {
          "internalType": "string",
          "name": "uid",
          "type": "string"
        },
        {
          "internalType": "string",
          "name": "stage",
          "type": "string"
        },
        {
          "internalType": "string",
          "name": "action",
          "type": "string"
        },
        {
          "internalType": "uint256",
          "name": "timestamp",
          "type": "uint256"
        }
      ],
      "stateMutability": "view",
      "type": "function"
    }
  ],
  "bytecode": "0x6080604052348015600f57600080fd5b50610d578061001f6000396000f3fe608060405234801561001057600080fd5b50600436106100415760003560e01c80636c8fd48714610046578063e581329b14610062578063e79899bd14610080575b600080fd5b610060600480360381019061005b91906106a3565b6100b3565b005b61006a610152565b6040516100779190610915565b60405180910390f35b61009a60048036038101906100959190610963565b610371565b6040516100aa94939291906109e9565b60405180910390f35b6000604051806080016040528085815260200184815260200183815260200142815250908060018154018082558091505060019003906000526020600020906004020160009091909190915060008201518160000190816101149190610c4f565b50602082015181600101908161012a9190610c4f565b5060408201518160020190816101409190610c4f565b50606082015181600301555050505050565b60606000805480602002602001604051908101604052809291908181526020016000905b8282101561036857838290600052602060002090600402016040518060800160405290816000820180546101a990610a72565b80601f01602080910402602001604051908101604052809291908181526020018280546101d590610a72565b80156102225780601f106101f757610100808354040283529160200191610222565b820191906000526020600020905b81548152906001019060200180831161020557829003601f168201915b5050505050815260200160018201805461023b90610a72565b80601f016020809104026020016040519081016040528092919081815260200182805461026790610a72565b80156102b45780601f10610289576101008083540402835291602001916102b4565b820191906000526020600020905b81548152906001019060200180831161029757829003601f168201915b505050505081526020016002820180546102cd90610a72565b80601f01602080910402602001604051908101604052809291908181526020018280546102f990610a72565b80156103465780601f1061031b57610100808354040283529160200191610346565b820191906000526020600020905b81548152906001019060200180831161032957829003601f168201915b5050505050815260200160038201548152505081526020019060010190610176565b50505050905090565b6000818154811061038157600080fd5b90600052602060002090600402016000915090508060000180546103a490610a72565b80601f01602080910402602001604051908101604052809291908181526020018280546103d090610a72565b801561041d5780601f106103f25761010080835404028352916020019161041d565b820191906000526020600020905b81548152906001019060200180831161040057829003601f168201915b50505050509080600101805461043290610a72565b80601f016020809104026020016040519081016040528092919081815260200182805461045e90610a72565b80156104ab5780601f10610480576101008083540402835291602001916104ab565b820191906000526020600020905b81548152906001019060200180831161048e57829003601f168201915b5050505050908060020180546104c090610a72565b80601f01602080910402602001604051908101604052809291908181526020018280546104ec90610a72565b80156105395780601f1061050e57610100808354040283529160200191610539565b820191906000526020600020905b81548152906001019060200180831161051c57829003601f168201915b5050505050908060030154905084565b6000604051905090565b600080fd5b600080fd5b600080fd5b600080fd5b6000601f19601f8301169050919050565b7f4e487b7100000000000000000000000000000000000000000000000000000000600052604160045260246000fd5b6105b082610567565b810181811067ffffffffffffffff821117156105cf576105ce610578565b5b80604052505050565b60006105e2610549565b90506105ee82826105a7565b919050565b600067ffffffffffffffff82111561060e5761060d610578565b5b61061782610567565b9050602081019050919050565b82818337600083830152505050565b6000610646610641846105f3565b6105d8565b90508281526020810184848401111561066257610661610562565b5b61066d848285610624565b509392505050565b600082601f83011261068a5761068961055d565b5b813561069a848260208601610633565b91505092915050565b6000806000606084860312156106bc576106bb610553565b5b600084013567ffffffffffffffff8111156106da576106d9610558565b5b6106e686828701610675565b935050602084013567ffffffffffffffff81111561070757610706610558565b5b61071386828701610675565b925050604084013567ffffffffffffffff81111561073457610733610558565b5b61074086828701610675565b9150509250925092565b600081519050919050565b600082825260208201905092915050565b6000819050602082019050919050565b600081519050919050565b600082825260208201905092915050565b60005b838110156107b0578082015181840152602081019050610795565b60008484015250505050565b60006107c782610776565b6107d18185610781565b93506107e1818560208601610792565b6107ea81610567565b840191505092915050565b6000819050919050565b610808816107f5565b82525050565b6000608083016000830151848203600086015261082b82826107bc565b9150506020830151848203602086015261084582826107bc565b9150506040830151848203604086015261085f82826107bc565b915050606083015161087460608601826107ff565b508091505092915050565b600061088b838361080e565b905092915050565b6000602082019050919050565b60006108ab8261074a565b6108b58185610755565b9350836020820285016108c785610766565b8060005b8581101561090357848403895281516108e4858261087f565b94506108ef83610893565b925060208a019950506001810190506108cb565b50829750879550505050505092915050565b6000602082019050818103600083015261092f81846108a0565b905092915050565b610940816107f5565b811461094b57600080fd5b50565b60008135905061095d81610937565b92915050565b60006020828403121561097957610978610553565b5b60006109878482850161094e565b91505092915050565b600082825260208201905092915050565b60006109ac82610776565b6109b68185610990565b93506109c6818560208601610792565b6109cf81610567565b840191505092915050565b6109e3816107f5565b82525050565b60006080820190508181036000830152610a0381876109a1565b90508181036020830152610a1781866109a1565b90508181036040830152610a2b81856109a1565b9050610a3a60608301846109da565b95945050505050565b7f4e487b7100000000000000000000000000000000000000000000000000000000600052602260045260246000fd5b60006002820490506001821680610a8a57607f821691505b602082108103610a9d57610a9c610a43565b5b50919050565b60008190508160005260206000209050919050565b60006020601f8301049050919050565b600082821b905092915050565b600060088302610b057fffffffffffffffffffffffffffffffffffffffffffffffffffffffffffffffff82610ac8565b610b0f8683610ac8565b95508019841693508086168417925050509392505050565b6000819050919050565b6000610b4c610b47610b42846107f5565b610b27565b6107f5565b9050919050565b6000819050919050565b610b6683610b31565b610b7a610b7282610b53565b848454610ad5565b825550505050565b600090565b610b8f610b82565b610b9a818484610b5d565b505050565b5b81811015610bbe57610bb3600082610b87565b600181019050610ba0565b5050565b601f821115610c0357610bd481610aa3565b610bdd84610ab8565b81016020851015610bec578190505b610c00610bf885610ab8565b830182610b9f565b50505b505050565b600082821c905092915050565b6000610c2660001984600802610c08565b1980831691505092915050565b6000610c3f8383610c15565b9150826002028217905092915050565b610c5882610776565b67ffffffffffffffff811115610c7157610c70610578565b5b610c7b8254610a72565b610c86828285610bc2565b600060209050601f831160018114610cb95760008415610ca7578287015190505b610cb18582610c33565b865550610d19565b601f198416610cc786610aa3565b60005b82811015610cef57848901518255600182019150602085019450602081019050610cca565b86831015610d0c5784890151610d08601f891682610c15565b8355505b6001600288020188555050505b50505050505056fea2646970667358221220fb001ed589a5258c410969824ae59d28b21a1b4d6b332904c9e82bf17568f82564736f6c634300081c0033",
  "linkReferences": {},
  "deployedLinkReferences": {}
}